S00B00004D617A652E7333375C
S21400000000200020C9B3000011B400000940000021
S21400001011B4000011B4000011B4000011B40000C7
S21400002011B4000011B4000011B4000011B40000B7
S21400003011B4000011B40000F5A40000B93F0000A0
S21400004011B4000011B40000CDAD000011B40000E2
S21400005011B400000D370000A93C0000413C000030
S21400006011B400004942000011B4000011B40000B1
S2140000707989000011B400002527000011B40000A3
S21400008011B4000011B4000011B4000011B4000057
S21400009011B4000011B4000011B4000011B4000047
S2140000A011B4000011B4000011B40000A102000059
S2140000B011B4000011B4000011B4000011B4000027
S2140000C011B4000011B4000011B4000011B4000017
S2140000D011B4000011B4000085A8000011B400009F
S2140000E011B400006937000011B4000011B400001C
S2140000F011B4000011B4000011B4000011B40000E7
S21400010011B4000011B4000011B4000011B40000D6
S21400011011B4000011B4000011B4000011B40000C6
S21400012011B4000011B4000011B4000011B40000B6
S21400013010B5054C237833B9044B13B10448AFF31C
S21400014000800123237010BD40270020000000001F
S214000150A427010008B5034B1BB103490348AFF3BE
S214000160008008BD0000000044270020A4270100EE
S214000170154B002B08BF134B9D46A3F5803A002174
S2140001808B460F461348144A121A0FF0D4FB0F4B37
S214000190002B00D098470E4B002B00D0984700202D
S2140001A0002104000D000D48002802D00C48AFF3D3
S2140001B000800FF091FB2000290008F05FFE0FF092
S2140001C077FB00BF000008000020002000000000B1
S2140001D0000000004027002054D402200000000049
S2140001E00000000082B003468DF807309DF9073006
S2140001F0002B0CDB9DF8073003F01F0205499DF924
S21400020007305B09012000FA02F241F8232000BF04
S21400021002B0704700E100E082B0034600918DF81E
S21400022007309DF90730002B0ADB009BDAB20C4939
S2140002309DF907305201D2B20B4483F800230BE03D
S214000240009BDAB207499DF8073003F00F03043B22
S2140002505201D2B20B441A7600BF02B0704700BFFC
S21400026000E100E000ED00E008B501210A480BF0CF
S214000270A1FE0A4B41F201021A60084B00229A6165
S214000280064B0822DA6205211B20FFF7C5FF1B205C
S214000290FFF7A8FF00BF08BD8006160000600640F6
S2140002A0034B08229A62034B00221A6000BF704775
S2140002B0006006405C27002000B585B00190184815
S2140002C00BF034FF0246019B03FB02F303F5FA73BF
S2140002D0144AA2FB03239B090393039B9BB202933E
S2140002E0114A029BD360039B1B0C029A002A01D082
S2140002F0012200E000220C4913448B610B4B0122C3
S2140003001A60094B01225A6000E000BF074B1B68C9
S214000310002BFAD10023184605B05DF804FB00BF99
S21400032080061600D34D6210006006405C27002051
S21400033086B0039002910192039B03F18873DA0062
S214000340029B13449B000593059B019A1A6000BF0D
S21400035006B0704700B587B0039002910192029BE9
S2140003601F2B03D9912109480BF02AF9039B03F1AF
S2140003700473DA00029B13449B000593059B019AC5
S2140003801A6000BF07B05DF804FB00BF1001010053
S21400039084B001900091019B03F10473DA00009B86
S2140003A013449B000393039B1B68184604B07047D6
S2140003B084B001900091019B03F1C0630393039BFB
S2140003C0009A1A6000BF04B0704784B00190009194
S2140003D0019B03F180630393039B009A1A6000BF9E
S2140003E004B0704700B583B0034600918DF807301F
S2140003F09DF80730002B24D09DF80730012B1DD028
S2140004009DF80730022B16D09DF80730032B0FD02F
S2140004109DF80730042B08D09DF80730052B02D135
S21400042047F6FF730FE000230DE04FF6FF730AE078
S2140004304FF6FF7307E04FF6FF7304E04FF6FF73C7
S21400044001E04FF6FF73009AD34003F00103002B40
S21400045004D140F2CD310B480BF0B2F89DF80720DE
S21400046013465B0013441B011C3303F1804303F562
S214000470082300991846FFF78BFF0346184603B07B
S2140004805DF804FB5801010000B583B003460091F7
S2140004908DF807309DF80730002B24D09DF80730E4
S2140004A0012B1DD09DF80730022B16D09DF8073083
S2140004B0032B0FD09DF80730042B08D09DF807308B
S2140004C0052B02D147F6FF730FE000230DE04FF631
S2140004D0FF730AE04FF6FF7307E04FF6FF7304E082
S2140004E04FF6FF7301E04FF6FF73009AD34003F018
S2140004F00103002B04D14FF47F710D480BF060F818
S2140005009DF8072013465B0013441B010C3303F1D0
S214000510804303F508230121009A01FA02F21146EE
S2140005201846FFF752FF00BF03B05DF804FB00BF9C
S2140005305801010000B583B0034600918DF80730DE
S2140005409DF80730002B24D09DF80730012B1DD0D6
S2140005509DF80730022B16D09DF80730032B0FD0DE
S2140005609DF80730042B08D09DF80730052B02D1E4
S21400057047F6FF730FE000230DE04FF6FF730AE027
S2140005804FF6FF7307E04FF6FF7304E04FF6FF7376
S21400059001E04FF6FF73009AD34003F00103002BEF
S2140005A004D140F22B410D480BF00AF89DF80720C5
S2140005B013465B0013441B010C3303F1804303F521
S2140005C008230121009A01FA02F211461846FFF7A5
S2140005D0EFFE00BF03B05DF804FB00BF580101004A
S2140005E008B5012304220C2100200EF0E1FB0123B4
S2140005F004220D2100200EF0DBFB012304220E2135
S21400060000200EF0D5FB01230422062103200EF065
S214000610CFFB012304220C2105200EF0C9FB012389
S21400062004220C2104200EF0C3FB01230222052124
S21400063003200EF0BDFB01230222082103200EF04A
S214000640B7FB00BF08BD10B505210320FFF7CAFEA3
S2140006500346DCB208210320FFF7C4FE0346DBB2E4
S2140006605B00DBB22343DBB283F00303DBB2184646
S21400067010BD00B583B003468DF807309DF80730EF
S214000680002B04D006210320FFF7FEFE03E0062120
S2140006900320FFF74FFF00BF03B05DF804FB000028
S2140006A000B583B003468DF807309DF8073083F019
S2140006B007038DF807309DF8073003F001031A464C
S2140006C00C211F48FFF746FE9DF8073003F0010394
S2140006D01A460C211B48FFF72BFE9DF807305B08D7
S2140006E08DF807309DF8073003F001031A460E21F7
S2140006F01348FFF72FFE9DF8073003F001031A4654
S2140007000E211048FFF714FE9DF807305B088DF8A1
S21400071007309DF8073003F001031A460D210848FC
S214000720FFF718FE9DF8073003F001031A460D2167
S2140007300448FFF7FDFD00BF03B05DF804FB00BFF3
S2140007400C8008406027002000B583B003468DF873
S21400075007309DF8073083F007038DF807309DF8C3
S214000760073003F001031A4606211148FFF7F2FD91
S2140007709DF807305B088DF807309DF8073003F0CA
S21400078001031A460C210B48FFF7E4FD9DF80730DD
S2140007905B088DF807309DF8073003F001031A4612
S2140007A00C210548FFF7D6FD00BF03B05DF804FB3B
S2140007B09C800840FC800840CC80084000B583B090
S2140007C03F4B00221A603F4B4FF400321A6043E062
S2140007D006238DF8043001AB012118460AF066F8AE
S2140007E000E000BF384B1B68002BFAD1D8238DF8E9
S2140007F00430344B1B681B0CDBB28DF80530314BD4
S2140008001B681B0ADBB28DF806302E4B1B68DBB26A
S2140008108DF8073001AB042118460AF047F832205D
S214000820FFF74AFD05238DF8043001AB0221184678
S2140008300AF03CF800E000BF234B1B68002BFAD1FF
S2140008409DF8053003F00103002BE8D11D4B1B6813
S21400085003F580331B4A13601A4B1B681B4A9342EE
S214000860B6D91B4B01221A60164B4FF400321A60A1
S214000870184B00221A60124B00221A60104B1A689E
S21400088013469B0113449B00134A13440433134A34
S2140008901360134B00221A60124B00221A600121CB
S2140008A04FF6FF7000F09AF801214FF6FF7000F047
S2140008B095F80D4B00221A8000BF03B05DF804FBCC
S2140008C06C2700206827002044D50020FEFF030088
S2140008D07C2700207427002024AB022064270020F9
S2140008E0802700207827002060D6002082B0019064
S2140008F0374B1B68002B68D0364B1B881BB242F662
S214000900DF62934261DC019B1A1D01921A68314B2B
S2140009101B881BB2194610B22F4A0B469B000B448D
S2140009205B00134402461A80019B1A1D01921A6846
S214000930284B1B881BB2194610B2274A0B469B0051
S2140009400B445B001344023302461A80019B1A1DB7
S21400095001921A681F4B1B881BB2194610B21E4A1A
S2140009600B469B000B445B001344043302461A807C
S214000970019B1A1D01921A68164B1B881BB219465A
S21400098010B2154A0B469B000B445B00134406331B
S21400099002461A80019B1A1D01921A680D4B1B888D
S2140009A01BB2194610B20C4A0B469B000B445B0068
S2140009B01344083302461A80064B1B881BB29BB2B0
S2140009C001339BB21AB2034B1A8000BF02B07047C5
S2140009D07C27002060D6002064D6002000B583B0B7
S2140009E003460091ADF80630009B002B10D0854BD7
S2140009F01B68002B0CD0844B1B689A1C82490A602B
S214000A00BDF806201A80814B1B6801337F4A1360AD
S214000A107F4B1B6801337E4A13607D4B1B687F2B20
S214000A2016D97C4B1B6883F001037A4A1360784B17
S214000A3000221A60774B1A6813469B0113449B00EA
S214000A40754A13440433704A1360744B01221A60CB
S214000A50724B1B68022B28D0032B00F08C80012BD6
S214000A6000D0CBE06E4B1B68002B40F0C080694B7B
S214000A701B6883F00102684913469B0113449B00E0
S214000A800B4406221A70634B1B6883F00102134660
S214000A909B0113449B00604A13440121184609F049
S214000AA005FF5E4B02221A60A8E05D4B1B68002B18
S214000AB040F09F80574B1B6883F00102564913464F
S214000AC09B0113449B000B4402221A70554B1B6873
S214000AD0190C504B1B6883F00102C8B24E491346EE
S214000AE09B0113449B000B44013302461A704D4B86
S214000AF01B68190A474B1B6883F00102C8B24649B7
S214000B0013469B0113449B000B44023302461A70A3
S214000B10444B19683F4B1B6883F00102C8B23E493C
S214000B2013469B0113449B000B44033302461A7082
S214000B30384B1B6883F0010213469B0113449B004D
S214000B40354A13444FF48271184609F0AFFE354B10
S214000B501B6803F58073334A1360324B1B6803F53A
S214000B608073B3F5802F02D3264B00221A602B4BDE
S214000B7003221A6042E02A4B1B68002B3BD1254B10
S214000B801B6883F00102244913469B0113449B0013
S214000B900B4405221A701F4B1B6883F00102134694
S214000BA09B0113449B001C4A13440221184609F07B
S214000BB07DFE184B1B6883F00102174913469B0104
S214000BC013449B000B4401331B7803F00103002BF6
S214000BD013D1154B1A680E4B1B689A4203D20C4B66
S214000BE01B68114A13600D4B00221A6006E000BF16
S214000BF004E000BF02E000BF00E000BF00BF03B09B
S214000C005DF804FB7C270020642700207427002062
S214000C10802700206C27002024AB022070270020AD
S214000C2044D50020682700207827002008B507E074
S214000C3000214FF6FF70FFF7D1FE0A20FFF73CFBBE
S214000C403D4B1B68002BF3D13C4BFF221A60002162
S214000C504FF6FF70FFF7C2FE07E00A20FFF72CFBF7
S214000C6000214FF6FF70FFF7B9FE334B1B68002BD1
S214000C70F3D1334B1B689AB2324B9A80304B1B68C9
S214000C801B0C9AB22F4BDA802E4B06221A700121CB
S214000C902C4809F00BFE00E000BF2B4B1B68002B16
S214000CA0FAD1284B02221A70264B02225A70254B84
S214000CB000229A70234B0022DA700821214809F09E
S214000CC0F5FD00E000BF204B1B68002BFAD100E0CA
S214000CD000BF1E4B1B68002BFAD01C4B00221A606C
S214000CE0184B05221A700221164809F0DFFD00E0B5
S214000CF000BF154B1B68002BFAD1124B5B7803F034
S214000D000103002BE5D1124B1B681A46114BC3F8A2
S214000D106828114B00221A60104B1B881BB21A461B
S214000D2013469B0013445B001A460D494FF480207F
S214000D300AF0D2F800BF08BD7027002080270020E8
S214000D407427002024AB022044D50020C4C402200F
S214000D5078270020F4C802207C27002060D60020D8
S214000D6064D6002084B001900091019B002B26D011
S214000D70002303930BE0039B9B00009A13441A681E
S214000D80019B1340002B06D1039B01330393039B67
S214000D90022BF0D900E000BF039B9B00009A13448F
S214000DA01B68402B05D0802B05D0202B05D10023B7
S214000DB006E0032304E0012302E0022300E002230E
S214000DC0184604B07047000084B0039002911346A2
S214000DD08DF807309DF80730032B2FD801A252F864
S214000DE023F000BFF50D0000190E0000070E0000EE
S214000DF02B0E0000039B5B681A46029B13441A46A0
S214000E00039B5A601AE0039B5B681A46029BD31A40
S214000E101A46039B5A6011E0039B1B681A46029B06
S214000E2013441A46039B1A6008E0039B1B681A4685
S214000E30029BD31A1A46039B1A6000BF00BF04B079
S214000E40704700BF00B583B0002301934D4B1B6C69
S214000E50002B01D1012390E04A4B1B6C9BB21A4633
S214000E6049494A480AF000F9464B1B6C9BB21A46A1
S214000E70474948480AF04AF900E000BF464808F0EB
S214000E8091F80346002BF8D100E000BF3D4BD3F8A5
S214000E908C3043F08043184608F084F80346002B55
S214000EA0F3D100E000BF3D4B1B68002BFAD100E0F9
S214000EB000BF374A019B52F8233043F08053184650
S214000EC008F070F80346002BF2D12F4A019B13441A
S214000ED01B78002B11D100E000BF019B013301936A
S214000EE02B4A019B52F8233043F08053184608F0F3
S214000EF059F80346002BEFD1E7E7234A019B13443A
S214000F001B78022B1DD000E000BF019B5A1C0192EB
S214000F101D4AD35C43F00053184608F043F80346D6
S214000F20002BF1D100E000BF194A019B52F8233094
S214000F3043F08053184608F035F80346002BF2D1EC
S214000F40C3E700BF00E000BF4FF0405008F02AF8AB
S214000F500346002BF7D100E000BF0F4808F022F848
S214000F600346002BF8D100E000BF0D4B1B68002B9A
S214000F70FAD00C4B00221A600023184603B05DF826
S214000F8004FB00BFF4C80220CCBC02208CC902209F
S214000F905CBE02201CCB0220200300504CD6002052
S214000FA09425002000D5002000B583B000230093D0
S214000FB080233F220021002006F092FC054BDB6ACE
S214000FC00021184606F060FAFFF73CFF00BF03B0AA
S214000FD05DF804FBF4C8022010B5A6B000232393E6
S214000FE000231E9300231D9300231C9300231393BA
S214000FF04FF6FF731A9300238DF86730002318937B
S21400100000230F930023109300231693FFF7D6FBBD
S21400101007F0EEFF8D4807F0C5FF8D4BD3F88C30F8
S214001020002B08D08A4BD3F88C3043F08043184608
S21400103007F0B8FF02E0874807F0B4FF239B43F0B1
S2140010408053184607F0AEFF002316930023139331
S21400105000231C937E4B00221A647D4B0022C3F8AB
S2140010608020109B7C4A53600F9B7B4A13607A4B10
S21400107001221A74784B04225A74774B04229A740D
S214001080754B0422DA74744B00221A81724B4FF6A9
S214001090FF725A81704B4FF6FF729A816E4B4FF675
S2140010A0FF72DA81169B0133169359E06B4B1B686F
S2140010B0002B52D06A4B0BAC0FCB07C42370694B86
S2140010C007AC0FCB84E80F00012300933F237F2259
S2140010D00021002006F004FC06F090F95F4B1B6828
S2140010E0DBB23033DBB28DF837301C995E4BA3FB96
S2140010F00123DA0813469B0013445B00CA1AD3B2D6
S2140011003033DBB28DF82A301C9B092B08D91C9B88
S214001110554AA2FB0323DB08DBB23033DBB200E028
S21400112020238DF829300123504A0321002006F0A1
S214001130E7FA0BAA01230421002006F0E1FA07AA29
S21400114001230521002006F0DBFA444B00221A603A
S214001150FFF76CFD012300F06CBE09F0DBF900BF61
S214001160434B1B68002BA1D00020FFF799FA414B98
S2140011701B6825933E4B00221A60354BD3F88C3003
S214001180002B1FD0324BD3F88C30DA0F13445B1091
S2140011901A46394B1B6813442D4AD2F88C20B3FBF1
S2140011A0F2F32B4AD2F88C2002FB03F3324A136088
S2140011B0314B1B68002B05D1254BD3F88C301A46D3
S2140011C02D4B1A602C4B1968189BDAB20FAB1846D9
S2140011D0FFF7FAFD00231B9353E00F991E481B9A56
S2140011E013469B0013449B0003441B68CB1A83EAF8
S2140011F0E372A2EBE372164B9B6C9A423EDA1099AE
S21400120015481B9A13469B0013449B000344043363
S2140012101B68CB1A83EAE372A2EBE3720C4B9B6C5F
S2140012209A422BDA0C491B9A13469B0013449B00E8
S2140012300B441B680F9308491B9A13469B001344E4
S2140012409B000B4404331B6810931EE020030050E1
S214001250F4C80220960000402CAD022004D50020E1
S2140012603402010044020100CDCCCCCCEC010100DC
S21400127000D50020ACD10220BCD102201B9B01333C
S2140012801B931B9A169B9A42A7D3C44B1B6C002B2E
S21400129040F0CD821B9A169B9A4240F0C8801A9B5B
S2140012A04FF6FF72934240F0C2800F99BC481B9ADB
S2140012B013469B0013449B00034419601099B848DA
S2140012C01B9A13469B0013449B0003440433196087
S2140012D0189B023303F003011C9B9CB2B0481B9A78
S2140012E013469B0013445B000B440433224620F84D
S2140012F01320189B03F00301A9481B9A13469B0072
S21400130013445B000B4404334FF6FF7220F813209F
S214001310189B033303F00301A1481B9A13469B0056
S21400132013445B000B4404334FF6FF7220F813207F
S214001330189B013303F0030199481B9A13469B0040
S21400134013445B000B4404334FF6FF7220F813205F
S214001350189B023303F0030191481B9A13469B0027
S21400136013449B0003440B44103301221A70259B40
S21400137003F02003002B01D0002400E00424189B77
S21400138003F0030186481B9A13469B0013449B00F8
S21400139003440B44103322461A70259B03F0400387
S2140013A0002B01D0002400E00424189B033303F034
S2140013B003017B481B9A13469B0013449B0003447F
S2140013C00B44103322461A70259B03F08003002B33
S2140013D001D0002400E00424189B013303F003012D
S2140013E06F481B9A13469B0013449B0003440B4410
S2140013F0103322461A70169B01331693169BC82B81
S21400140040F2208107F0F4FD012300933F237F2262
S2140014100021002006F064FA05F0F0FF0123614A7F
S2140014200321002006F06CF9C82316930AE11A9BE4
S2140014304FF6FF72934200F0BF801A9A1B9B9A42A7
S21400144000F0BA801A9B4FF6FF72934219D0534BA6
S2140014505B6F002B15D01A9B1B9351491A9A1346A3
S2140014609B0013449B000B4404331B6810934C49A9
S2140014701A9A13469B0013449B000B441B680F9359
S2140014809AE007F0B5FD012300933F237F22002159
S214001490002006F025FA05F0B1FF0123424A02219A
S2140014A0002006F02DF90123404A0321002006F013
S2140014B027F91A9B03AA1146184606F007FC03AA4A
S2140014C001230321082006F01BF935491A9A134612
S2140014D09B0013449B000B441B6803AA1146184646
S2140014E006F0F4FB129003AA01230421002006F064
S2140014F007F9129801232E4A042106F001F928491B
S2140015001A9A13469B0013449B000B4404331B6833
S21400151003AA1146184606F0D9FB129B013318465B
S21400152003AA0123042106F0EBF80123214A052132
S214001530002006F0E5F81B9B03AA1146184606F0A5
S214001540C5FB03AA01230521082006F0D9F80F9B46
S21400155003AA1146184606F0B9FB129003AA012307
S2140015600621002006F0CCF812980123104A062126
S21400157006F0C6F8109B03AA1146184606F0A6FB0E
S214001580129B0133184603AA0123062106F0B8F879
S214001590FFF74CFB012300F04CBC00BFF4C8022050
S2140015A02CAD0220F80101000C0201001C02010013
S2140015B024020100280201001E9B002B2FD1189B3D
S2140015C0023303F00301B7481B9A13469B001344EB
S2140015D09B0003440B4410331B78012B21D8189B27
S2140015E0023303F00301AF481B9A13469B001344D3
S2140015F09B0003440B4410331B78189A023202F007
S21400160003010133DCB2A7481B9A13469B00134420
S2140016109B0003440B44103322461A7001E000235B
S2140016201E93189B023303F003011C9B9CB29D483B
S2140016301B9A13469B0013445B000B44043322465C
S21400164020F81320259B002B33D100E000BF964BDB
S2140016501B68002BFAD002F0A1FE0346012B02D035
S214001660022B1ED026E01B9B904AD365904807F0BD
S21400167099FC904807F096FC8F4807F093FC8B4B3C
S214001680D3F88C30002B08D0884BD3F88C3043F03E
S2140016908043184607F086FC0CE0884807F082FC7A
S2140016A008E01B9B814AC2F88030834807F07AFC2A
S2140016B000E000BF00232293002321930023209301
S2140016C0002324931FE077491B9A13469B0013447C
S2140016D09B00CA18249B134410331B78012B07D099
S2140016E0022B09D0002B0BD1229B0133229307E05B
S2140016F0219B0133219303E0209B0133209300BFFD
S214001700249B01332493249B032BDCD9219B032B9E
S21400171002D100231F9313E0229B002B02D001234B
S2140017201F930DE0219B002B02D002231F9307E09E
S214001730634807F037FC604807F034FC00BF61E3FD
S214001740E0232593189B033303F0030155481B9AA7
S21400175013469B0013449B0003440B4410331B7832
S2140017601A461F9B934203D8259B23F040032593DC
S214001770189B013303F003014A481B9A13469B004B
S21400178013449B0003440B4410331B781A461F9BDC
S214001790934203D8259B23F080032593189B03F0E0
S2140017A0030140481B9A13469B0013449B000344C6
S2140017B00B4410331B781A461F9B934203D8259B75
S2140017C023F020032593189B03F003011B9B9CB278
S2140017D034481C9A13469B0013445B000B440433A6
S2140017E0224620F81320314B9B6A052B02D82F4B3C
S2140017F09B6A0DE008F08EFE03461A46314BA3FBAB
S214001800021399080B465B000B445B00D31ADBB24D
S2140018101193119A13465B0013449B002A4A134403
S21400182019462598FFF79EFA03468DF867301F4B3A
S214001830DB6A002B5CD100211B9805F025FE259B5A
S21400184003F04003002B04D003220621282006F0D4
S21400185001F8259B03F02003002B04D0002206216C
S214001860382005F0F7FF259B03F08003002B04D0FB
S21400187001220621482005F0EDFF9DF86730032B76
S21400188036D801A252F823F0CD180000D91800006F
S214001890E51800009918000003220421282005F00E
S2140018A0D9FF25E02CAD022094250020F4C80220A4
S2140018B002000020640000602003005096000040F4
S2140018C064000030ABAAAAAAA401010000220421E9
S2140018D0382005F0BFFF0BE001220421482005F068
S2140018E0B9FF05E002220421382005F0B3FF00BF4F
S2140018F0189B8DF857301F9B012B00F046811B9BD1
S21400190014939DF857209DF8673013448DF8573090
S2140019109DF8573003F003038DF857309DF85710A5
S214001920BA48149A13469B0013449B0003440B4486
S21400193010331B78012B1BD89DF85710B348149A08
S21400194013469B0013449B0003440B4410331B7840
S2140019509DF857100133DCB2AC48149A13469B002E
S21400196013449B0003440B44103322461A7002E0D3
S2140019700120FEF795FE9DF85710A448149A1346CA
S2140019809B0013445B000B44043330F8133014936D
S2140019909DF85730023303F003019C48149A13460F
S2140019A09B0013449B0003440B4410331B78012B0D
S2140019B020D89DF85730023303F003019348149A59
S2140019C013469B0013449B0003440B4410331B78C0
S2140019D09DF85720023202F003010133DCB28B4837
S2140019E0149A13469B0013449B0003440B44103385
S2140019F022461A700023229300232193002320936B
S214001A00002324931FE08149149A13469B00134435
S214001A109B00CA18249B134410331B78012B07D055
S214001A20022B09D0002B0BD1229B0133229307E017
S214001A30219B0133219303E0209B0133209300BFB9
S214001A40249B01332493249B032BDCD9219B032B5B
S214001A5002D100231F930DE0229B002B02D001230E
S214001A601F9307E0219B002B02D002231F9301E067
S214001A7003231F93E02325939DF85730033303F089
S214001A8003016248149A13469B0013449B000344C8
S214001A900B4410331B781A461F9B934203D8259B92
S214001AA023F0400325939DF85730013303F00301DC
S214001AB05648149A13469B0013449B0003440B4459
S214001AC010331B781A461F9B934203D8259B23F09E
S214001AD0800325939DF8573003F003014B48149A72
S214001AE013469B0013449B0003440B4410331B789F
S214001AF01A461F9B934203D8259B23F02003259369
S214001B00434B9B6A052B02D8414B9B6A0CE0404B2B
S214001B109A6A404B83FB0231D317C91A0B465B0007
S214001B200B445B00D11A0B461193119A13465B00C7
S214001B3013449B00384A134419462598FFF712F9B8
S214001B4003468DF867301F9B022B3FF4DAAE189BD6
S214001B50DBB21A4614991B9800F002FA189BDBB207
S214001B609DF85720D31ADAB29DF8673013448DF8E3
S214001B7067309DF8673003F003038DF86730012364
S214001B801F930023179301231D93214B1B6C002BDF
S214001B9074D00420FEF784FD1D9B013B1D931D9B06
S214001BA0002B40F02A811EE000BF1C4A179B52F80B
S214001BB02330184607F0F6F90346002BF5D1174AEE
S214001BC0179B52F823308DF86730144A179B52F84B
S214001BD02330189A13441893189B03F003031893A2
S214001BE0179B013317930D4A179B52F8233003F0C7
S214001BF07043B3F1005F04D1054B1B6C179A9A42F1
S214001C00D2DB012007F074F91BE000BF2CAD0220E8
S214001C10F4C80220ABAAAA2AA40101005CBE0220D6
S214001C2000BF854A179B52F82330184607F0BAF9CA
S214001C300346002BF5D1179B013317931D9B0133E9
S214001C401D937D4A179B52F8233003F07043B3F17F
S214001C50805F04D1794B1B6C179A9A42E0DB002018
S214001C6007F046F9754B1B6C179A9A42C0F2C5806E
S214001C70724B00221A6401231E93BEE00220FEF778
S214001C800FFD9DF86730002B0BD0002B0ADB032BD3
S214001C9008DC9DF8673043F00053184607F082F9D9
S214001CA000E000BF9DF86730189A13441893189BFD
S214001CB003F00303189362491B9A13469B001344D0
S214001CC09B00CA18189B134410331B78012B19D895
S214001CD05B491B9A13469B0013449B00CA18189B2B
S214001CE0134410331B780133D8B255491B9A134658
S214001CF09B0013449B00CA18189B134410330246DB
S214001D001A7002E00120FEF7CBFC4D491B9A1346E1
S214001D109B0013445B00189A1344043331F81330C5
S214001D201A931A9B4FF6FF7293425ED0189B032BB2
S214001D305DD801A252F823F0491D00009D1D000049
S214001D40731D0000C31D00003D491A9A13469B00F0
S214001D5013449B000B440433196839481B9A1346F6
S214001D609B0013449B00034404331B68CB1A239345
S214001D703DE033491B9A13469B0013449B000B44DB
S214001D80043319682E481A9A13469B0013449B0086
S214001D90034404331B68CB1A239328E028491A9A75
S214001DA013469B0013449B000B44196824481B9A57
S214001DB013469B0013449B0003441B68CB1A2393D3
S214001DC015E01F491B9A13469B0013449B000B44C7
S214001DD019681B481A9A13469B0013449B00034439
S214001DE01B68CB1A239300BF01E000232393239B99
S214001DF043F08053184607F0D5F81B9B1C93FFF75B
S214001E0054B900BF0F4B1B68002BFAD0FEF70EFF2D
S214001E10139B002B02D0139B084AD365169B074AD8
S214001E2053654FF47A6206494FF4803009F054F84F
S214001E300023184626B010BD5CBE0220F4C802205F
S214001E402CAD02209425002084B0019000911A4BFE
S214001E501B680133184A1360174B1B683F2B01D9C8
S214001E60012326E0144B1B68013B039316E0039BFB
S214001E70013B124A52F82330114A52F82330019A95
S214001E809A420FD9039B013B0C4A52F823200B4978
S214001E90039B41F82320039B013B0393039B002BEA
S214001EA0E5D100E000BF0549039B009A41F82320D6
S214001EB00023184604B07047C42E0020C42D00200E
S214001EC084270020054B1B68013B044A1360034B24
S214001ED01B68034A52F8233018467047C42E002069
S214001EE0C42D002000B583B0002300933F237F223B
S214001EF00021002005F0F4FC05F080FA0C4BDB6AAC
S214001F00002B05D00A4BDB6A0021184605F0BCFA08
S214001F10FFF762F80346002B05D000BF06F042FF2D
S214001F200346042BFAD100BF03B05DF804FB00BFE4
S214001F30F4C8022008B54FF47A6208494FF480309E
S214001F4008F07EFF05F01CFF00E000BF06F02AFF49
S214001F500346042BF9D100BF08BD00BF2CAD0220FC
S214001F6010B58AB00390029113468DF807304FF4EF
S214001F70C87271494FF0FF3009F020F900E000BF49
S214001F806E4B1B68002BFAD1029B5B006A4A00214D
S214001F9042F82310029B5B000133674A002142F897
S214001FA02310674B00221A60029B5B001946002034
S214001FB0FFF74AFF029B5B00013319460020FFF73C
S214001FC043FFA0E0FFF77EFF0890002309936CE034
S214001FD0089B5A08099B5900089B03F00103194403
S214001FE0584813469B0013445B000B44043330F8F8
S214001FF013300593059B4FF6FF72934252D0089B11
S2140020005A08504913469B0013449B000B44043364
S21400201019684C48059A13469B0013449B000344DA
S21400202004331B68C91A089B5A08464813469B0087
S21400203013449B0003441868424C059A13469B00C1
S21400204013449B0023441B68C31A0B440793079B47
S214002050002B02DA079B5B420793059B5A00089BFE
S21400206003F0010313440593334A059B52F82320DB
S2140020703149089B51F82310079B0B449A4211D90B
S2140020802D4A089B52F82320079B1A442A49059B91
S21400209041F82320284A059B52F823300599184614
S2140020A0FFF7D2FE099B01330993099B012B8FD9B9
S2140020B0254B9B6F0793089B83F0010305931E4AED
S2140020C0059B52F823201C49089B51F82310079BB8
S2140020D00B449A4217D9184A089B52F82320079BAC
S2140020E01A441549059B41F82320134A059B52F8CC
S2140020F0233005991846FFF7A7FE0346002B02D0AB
S2140021000120FEF7CDFA0E4B1B68002B7FF45AAF6A
S2140021100D4B00221A649DF807308DF81B30039B88
S2140021205A009DF8073003F0010313430893BBE001
S21400213000230993B4E000BF842700204CD600207B
S214002140C42E00202CAD0220F4C80220099B012BCF
S21400215000F28F80089B5A08099B5900089B03F0E1
S21400216001031944564813469B0013445B000B4476
S214002170043330F813300593059B4FF6FF729342F5
S21400218000F08B80089B5A084D4913469B00134469
S2140021909B000B44043319684948059A13469B0074
S2140021A013449B00034404331B68C91A089B5A084F
S2140021B0434813469B0013449B0003441868404C56
S2140021C0059A13469B0013449B0023441B68C31ABE
S2140021D00B440793079B002B02DA079B5B4207938F
S2140021E0059B5A00089B03F0010313440593354AE8
S2140021F0089B52F82320079BD21A3249059B51F8B8
S21400220023309A4249D1089BDBB203F00103DAB2CD
S214002210099BDBB25B00DBB213448DF813309DF8EC
S21400222013209DF81B309A4211D09DF813209DF87C
S2140022301B30D31ADBB203F00302234B1B6C591C72
S2140022402148016442F00052204941F823201E4BE9
S2140022501B6C5A1C1C490A64079A42F080521B49A0
S21400226041F823209DF813308DF81B30059B08930A
S2140022701AE0144A089B52F82330134A926F9A1AAF
S214002280089B83F001030F4951F823309A4204D18A
S214002290089B83F00103089306E0099B013309932A
S2140022A0099B022B7FF652AF064A089B52F8233052
S2140022B0002B7FF43DAF002318460AB010BD00BFC8
S2140022C02CAD022084270020F4C802205CBE022029
S2140022D082B003468DF807309DF90730002B0CDBE3
S2140022E09DF8073003F01F0205499DF907305B098A
S2140022F0012000FA02F241F8232000BF02B0704726
S21400230000E100E082B0034600918DF807309DF9A9
S2140023100730002B0ADB009BDAB20C499DF9073028
S2140023205201D2B20B4483F800230BE0009BDAB2D2
S21400233007499DF8073003F00F03043B5201D2B261
S2140023400B441A7600BF02B0704700BF00E100E001
S21400235000ED00E000B587B0039002910192029B69
S2140023601F2B03D99121094809F02AF9039B03F191
S2140023700473DA00029B13449B000593059B019AA5
S2140023801A6000BF07B05DF804FB00BF54020100EE
S21400239000B583B003460A46ADF806301346ADF8DE
S2140023A00430BDF90630002B0BDA01220021194853
S2140023B0FFF7D0FFBDF906305A42174BC3F89420FA
S2140023C009E0002200211348FFF7C4FF124ABDF9B6
S2140023D00630C2F89430BDF90430002B0BDA012227
S2140023E001210C48FFF7B6FFBDF904305A420A4BEC
S2140023F0C3F8842009E0002201210648FFF7AAFF5F
S214002400054ABDF90430C2F8843000BF03B05DF859
S21400241004FB00BF9C8008400084014000B585B0E6
S2140024206A4602AB1146184601F0CCF9029B002B17
S21400243004D0029B7C4AB2FBF3F301E040F2356322
S2140024407A4A1360009B002B04D0009B764AB2FBAE
S214002450F3F301E040F23563754A13609DF80C30E3
S214002460022B04D1714B1B685B42704A13609DF8C7
S2140024700430022B04D16E4B1B685B426C4A13601F
S2140024806C4B1A68694B1B68D31A6B4A13606B4B0C
S2140024901A68674B1B68D31A694A1360694B002297
S2140024A01A60644B1B68674A5360644B1B68654A36
S2140024B093605E4B1B68634AD3605D4B1B68614A42
S2140024C013616048FEF712FA5F4B5B6E5A4A126859
S2140024D002FB03F39A125D4B1B6813445B4A1360BE
S2140024E0594B5B6E564A126802FB03F39A12584B1E
S2140024F01B681344564A1360544B1B6843F69722D6
S214002500934204DD514B43F697221A6007E04F4B87
S2140025101B68504A934202DA4C4B4E4A1A604C4BA8
S2140025201B6843F69722934204DD494B43F69722F5
S2140025301A6007E0464B1B68464A934202DA444B51
S214002540444A1A60404B9B6E3B4A126802FB03F3F8
S2140025509B12414A13603C4B9B6E394A126802FB41
S21400256003F39B123D4A1360384B1A683A4B1B68BC
S21400257013443B4A1360364B1A68384B1B681344A7
S214002580384A13602B4B1B68002B0AD19DF80C3081
S214002590012B06D1324B00221A60314B1B682B4AA6
S2140025A01360264B1B68002B0AD19DF80430012BC4
S2140025B006D12C4B00221A602A4B1B68244A136053
S2140025C0274B1B6843F69722934204DD244B43F6C1
S2140025D097221A6007E0224B1B681E4A934202DAD3
S2140025E01F4B1C4A1A601F4B1B6843F697229342E8
S2140025F004DD1C4B43F697221A6007E0194B1B6854
S214002600144A934202DA174B124A1A60144B1B689C
S2140026101AB2144B1B681BB219461046FFF7B8FED9
S21400262000BF05B05DF804FB15EA6A0CD42E002046
S214002630D82E0020C82E0020DC2E0020CC2E002015
S214002640E02E0020A0C40220F4C80220E42E0020C1
S214002650E82E002069C5FFFFEC2E0020F02E00209B
S214002660F42E0020F82E002008B5002304220821AE
S21400267000200CF09DFB00230422002103200CF018
S21400268097FB00230422012103200CF091FB00237A
S2140026900422042103200CF08BFB002304220C21CF
S2140026A001200CF085FB002304220B2101200CF0F6
S2140026B07FFB0121174809F07DFC174B174A1A606B
S2140026C0154B43F69722DA61134B0322C3F880209A
S2140026D0114B0322C3F890200F4B0022C3F884202E
S2140026E00D4B0022C3F894200B4B0C221A630A4BA6
S2140026F00B4A5A6303210E20FFF704FE0E20FFF755
S214002700E7FD054B03229A61034B01225A6000BF86
S21400271008BD00BF0062040000840140424000047F
S2140027200000030308B5124B9B6903F00103002B5E
S2140027300AD00F4BDB6803F00103002B04D00C4BD0
S21400274001225A61FFF76AFE094B9B6903F00203F8
S214002750002B0AD0064BDB6803F00203002B04D0E4
S214002760034B02225A61FFF759FE00BF08BD00BFA7
S2140027700084014082B003460A46ADF80630134690
S214002780ADF8043072B6BDF90630054A1360BDF9DF
S2140027900430044A136062B600BF02B0704700BF40
S2140027A0C82E0020CC2E002008B5012204210248A5
S2140027B0FFF7D0FD00BF08BD9C80084008B500228A
S2140027C004210248FFF7C6FD00BF08BD9C800840F4
S2140027D000B585B0002303930023029300230093E3
S2140027E03F237F220021002005F07AF800235D4A6F
S2140027F00121032004F084FF00235B4A0621012008
S21400280004F07EFF0023594A0721032004F078FFD6
S21400281001230093282348221721372005F060F86B
S21400282004F0ECFDFFF7C0FF514B40F2DC521A609B
S21400283088E0039B052B71D801A252F823F000BF55
S21400284059280000592800006D280000992800002B
S214002850C5280000EB280000029B002B01D004F0E6
S214002860CDFD00210020FFF785FF57E0029B002BDF
S21400287004D001220321382004F0ECFF3D4B9B6876
S2140028801AB23C4B9B689BB25B429BB21BB219468A
S2140028901046FFF76FFF41E0029B002B04D0032297
S2140028A00321382004F0D6FF324B9B689BB25B4274
S2140028B09BB21AB22F4B9B681BB219461046FFF705
S2140028C059FF2BE0029B002B04D000220321382066
S2140028D004F0C0FF274B9B681AB2264B9B681BB2BE
S2140028E019461046FFF746FF18E0029B002B04D05F
S2140028F002220321382004F0ADFF1E4B9B689BB2DA
S2140029005B429BB21AB21B4B9B689BB25B429BB26C
S2140029101BB219461046FFF72DFF00BF0023029397
S214002920134B1B68002B0DD1039B01330393039BB2
S214002930052B01D9002303930D4B40F2DC521A609D
S2140029400123029306F02EFA0346042B7FF471AFA0
S21400295000210020FFF70EFFFFF730FF00BF05B095
S2140029605DF804FB9C020100A8020100B802010009
S214002970D02E0020F4C8022000B583B0019000914C
S21400298000230422052105200CF012FA0023002261
S214002990052104200CF00CFA002300220821042054
S2140029A00CF006FA00230022092104200CF000FA9D
S2140029B0002300220A2104200CF0FAF9002300224A
S2140029C00B2104200CF0F4F9002300220D21042032
S2140029D00CF0EEF9002300220E2104200CF0E8F99A
S2140029E0002300220F2104200CF0E2F9324B4EF6B1
S2140029F02072C3F8E8200121304809F0DBFA0121F3
S214002A004FF4AA4009F0D6FA01212D4809F0D2FA6F
S214002A102C4B4FF040721A602A4B43F60852DA618C
S214002A20284B43F609525A62264B0322C3F88020ED
S214002A30244B43F62702C3F88420224B224A1A6608
S214002A40204B43F65F125A661E4B03221A671D4B35
S214002A5043F6D0325A671D4B1D4A9A651B4B4FF4FE
S214002A6080321A61194B04229A60184B43F60362AF
S214002A70DA65164B174A1A66174B184A1A60164B31
S214002A80174A9A61144B4FF40222DA61124B154A28
S214002A905A62114B144A1A620F4B08229A60134A64
S214002AA0134900200CF00AFB064B01225A6000BFB7
S214002AB003B05DF804FB00BF00800840007204000D
S214002AC000E20800008801400300001000600E408D
S214002AD0023E0004043E00080020084013013200B5
S214002AE048000025100D11112045A20810200020D6
S214002AF00020002082B00123019300E000BF494B74
S214002B00DB6803F00203002BF8D1464B0122C3F822
S214002B1090200023009378E0434B1B68002B1ED0C8
S214002B20414B1B685A1C40490A604049009A0A44B7
S214002B301278D2B21A70009B03F108023A4B1B6857
S214002B40591C3948016039498A5CD2B21A70364B32
S214002B501B68374A934202D9334B00221A60009B07
S214002B600833324AD35CDBB21946304A009B134422
S214002B701B78DBB21E33994202DD2E4B01221A600F
S214002B80009B0833294AD35CDBB21A462A4B1B68E3
S214002B90DB109A4207DA019BDA43284B1B68134086
S214002BA0264A13602BE0214A009B13441B78DBB2B5
S214002BB01A46214B1B68DB1050339A4219DD1B4A1C
S214002BC0009B13441B78DBB2503BDB001C4AA2FB85
S214002BD00323DB08009A083214498A5CD2B2934277
S214002BE007D9019BDA43154B1B681340134A136041
S214002BF005E0124B1A68019B1343104A1360019BB1
S214002C005B000193009B01330093009B072B83D945
S214002C100C4B01221A600C4B4FF080525A6000BFDA
S214002C2002B070470020084000AC0020B4C4022068
S214002C30FFAB002004AC0020F4C80220FC2E0020CD
S214002C40CDCCCCCCC4C4022000ED00E030B48AB0B9
S214002C50019000912A4B02AC1D460FCD0FC495E89B
S214002C600F0084E80F00019BB3F5807F03D0009B24
S214002C70B3F5807F01D100233DE0009A019B9A4284
S214002C8006D1009B9B000AAA134453F8203C32E06E
S214002C90019B9B000AAA134453F8202C009B9B0020
S214002CA00AA90B4453F8203C1344DA0F13445B1074
S214002CB0A3F12F02019B08331249CB5CDBB2194605
S214002CC0114B1B68DB10CB1A5E2101FB03F1019B45
S214002CD008330C48C35CDBB21C46009B083309482B
S214002CE0C35CDBB2E018084B1B685B00DB10C31A42
S214002CF091FBF3F3134418460AB030BC704700BF8C
S214002D00C4020100B4C40220F4C8022082B00190BC
S214002D1000BF02B07047000030B58BB0364B374A64
S214002D201A6056E0344B1B68002B03D00220FDF7D8
S214002D300BFD02E00120FDF707FD314B1B68002B61
S214002D4047D02F4B00221A602E4B1B680593059B1D
S214002D5009934FF4807308934FF48073079300230E
S214002D6006931CE0069B0833274AD35CD9B203AA15
S214002D70069B13440A461A70099B03F00103002BB6
S214002D8007D0069B0793089BB3F5807F01D1069B6F
S214002D900893099B5B080993069B01330693069BE1
S214002DA0072BDFD9089BB3F5807F03D10323089355
S214002DB004230793059BDCB2144B1B681D4607993A
S214002DC00898FFF743FF034603A92A46204604F067
S214002DD003FA05F0E7FF0346042BA3D10020FDF716
S214002DE0B3FC002300933F237F220021002004F041
S214002DF077FD002306937FE100AC0020002F002023
S214002E00C4C40220FC2E0020B4C40220F4C8022051
S214002E10B84A069B1B0113441B785B08DBB21846B6
S214002E20B44A069B1B01134401331B789B08DBB294
S214002E30C3F13F031946AF4A069B1B0113441B7898
S214002E405B08DBB21C46AB4A069B1B0113440133EE
S214002E501B789B08DBB2C3F13F031A46012300939D
S214002E601346224604F03CFDA24A069B1B0113446F
S214002E7002331B785B08DBB218469E4A069B1B0192
S214002E80134403331B789B08DBB2C3F13F03194698
S214002E90984A069B1B01134402331B785B08DBB27F
S214002EA01C46944A069B1B01134403331B789B085D
S214002EB0DBB2C3F13F031A460123009313462246B2
S214002EC004F00EFD8B4A069B1B01134404331B784B
S214002ED05B08DBB21846874A069B1B011344053382
S214002EE01B789B08DBB2C3F13F031946814A069B59
S214002EF01B01134404331B785B08DBB21C467D4A77
S214002F00069B1B01134405331B789B08DBB2C3F1F9
S214002F103F031A46012300931346224604F0E0FCC2
S214002F20744A069B1B01134406331B785B08DBB20E
S214002F301846704A069B1B01134407331B789B08F0
S214002F40DBB2C3F13F0319466A4A069B1B011344D2
S214002F5006331B785B08DBB21C46664A069B1B01E1
S214002F60134407331B789B08DBB2C3F13F031A46B2
S214002F70012300931346224604F0B2FC5D4A069BEA
S214002F801B01134408331B785B08DBB21846594A0A
S214002F90069B1B01134409331B789B08DBB2C3F165
S214002FA03F031946534A069B1B01134408331B78FC
S214002FB05B08DBB21C464F4A069B1B0113440933D1
S214002FC01B789B08DBB2C3F13F031A46012300932C
S214002FD01346224604F084FC464A069B1B01134413
S214002FE00A331B785B08DBB21846424A069B1B0175
S214002FF013440B331B789B08DBB2C3F13F0319461F
S2140030003C4A069B1B0113440A331B785B08DBB261
S2140030101C46384A069B1B0113440B331B789B083F
S214003020DBB2C3F13F031A46012300931346224640
S21400303004F056FC2F4A069B1B0113440C331B78E6
S2140030405B08DBB218462B4A069B1B0113440D3364
S2140030501B789B08DBB2C3F13F031946254A069B43
S2140030601B0113440C331B785B08DBB21C46214A59
S214003070069B1B0113440D331B789B08DBB2C3F180
S2140030803F031A46012300931346224604F028FC09
S214003090184A069B1B0113440E331B785B08DBB2F1
S2140030A01846144A069B1B0113440F331B789B08D3
S2140030B0DBB2C3F13F0319460E4A069B1B011344BD
S2140030C00E331B785B08DBB21C460A4A069B1B01C4
S2140030D013440F331B789B08DBB2C3F13F031A4639
S2140030E0012300931346224604F0FAFB069B0133A5
S2140030F0069301E0002F0020069BB3F5FA6FFFF45D
S21400310087AE1A4B1B685B11C3F13F031946174B7A
S2140031101B685B11C3F13F031A4601230093134655
S2140031207F22002004F09AFC012300931C237F22B8
S2140031303F21282004F092FC0D4B1B68002B05D085
S21400314001230C4A0021002004F0DAFA04F056F9B4
S21400315000E000BF05F026FE0346042BF9D1044B21
S21400316000221A6000BF0BB030BD00BFF4C80220BA
S21400317004AC0020E402010082B0019000910B4BE9
S21400318000221A60094A019B013B5360074B00224C
S2140031909A60009BDBB2064A5B01DBB282F8233002
S2140031A0024B07221A6000BF02B0704710E000E032
S2140031B000ED00E082B003468DF807309DF9073039
S2140031C0002B0CDB9DF8073003F01F0205499DF924
S2140031D007305B09012000FA02F241F8232000BF05
S2140031E002B0704700E100E082B0034600918DF81F
S2140031F007309DF90730002B0ADB009BDAB20C493A
S2140032009DF907305201D2B20B4483F800230BE03D
S214003210009BDAB207499DF8073003F00F03043B22
S2140032205201D2B20B441A7600BF02B0704700BFFC
S21400323000E100E000ED00E082B00190234B9B68C7
S21400324003F00103002B03D0214B02221A7102E087
S2140032501F4B00221A711F4B1B68019AD31A1C4A77
S21400326013601C4A019B13601B4B1B6801331A4AF0
S21400327013601A4B1A681A4B1B681A4951F8233008
S214003280D31A164A1360164B1B68114A1268154962
S21400329041F82320124B1B685A1C11490A60114A38
S2140032A052F823200D4B1B6813440C4A13600C4B3A
S2140032B01B6803F007030A4A1360084B1B68DB0809
S2140032C0034A136000BF02B0704700BF00E4064028
S2140032D0C8C4022018AC002010AC00201CAC002093
S2140032E020AC002024AC002082B00190234B9B68C9
S2140032F003F00203002B03D0214B02221A7102E0D6
S2140033001F4B00221A711F4B1B68019AD31A1C4AC6
S21400331013601C4A019B13601B4B1B6801331A4A3F
S21400332013601A4B1A681A4B1B681A4951F8233057
S214003330D31A164A1360164B1B68114A12681549B1
S21400334041F82320124B1B685A1C11490A60114A87
S21400335052F823200D4B1B6813440C4A13600C4B89
S2140033601B6803F007030A4A1360084B1B68DB0858
S214003370034A136000BF02B0704700BF00A40140BC
S214003380D0C4022044AC002014AC002048AC00207E
S2140033904CAC002050AC002082B00346ADF806309E
S2140033A02D4B1B689BB22D4A1360BDF806202C4B94
S2140033B01B681B041344284A13602A4B9B6803F0BF
S2140033C00103002B03D0284B02221A7102E0264B81
S2140033D000221A71224B1B68012B07D81E4B1A6855
S2140033E01E4B1B68D31A204A136006E01E4B0122B0
S2140033F01A711D4B4FF400321A60194B00221A60E6
S2140034001A4B1A681A4B1B681A4951F82330D31AFC
S214003410164A1360164B1B68134A1268154941F882
S2140034202320134B1B685A1C11490A60114A52F894
S21400343023200E4B1B6813440C4A13600C4B1B686E
S21400344003F007030A4A1360084B1B68DB08064AAA
S214003450136000BF02B0704770AC002074AC002050
S21400346008AC002000E40640C8C4022078AC002067
S2140034707CAC002080AC002082B00346ADF806305D
S2140034802D4B1B689BB22D4A1360BDF806202C4BB3
S2140034901B681B041344284A13602A4B9B6803F0DE
S2140034A00203002B03D0284B02221A7102E0264B9F
S2140034B000221A71224B1B68012B07D81E4B1A6874
S2140034C01E4B1B68D31A204A136006E01E4B0122CF
S2140034D01A711D4B4FF400321A60194B00221A6005
S2140034E01A4B1A681A4B1B681A4951F82330D31A1C
S2140034F0164A1360164B1B68134A1268154941F8A2
S2140035002320134B1B685A1C11490A60114A52F8B3
S21400351023200E4B1B6813440C4A13600C4B1B688D
S21400352003F007030A4A1360084B1B68DB08064AC9
S214003530136000BF02B07047A0AC0020A4AC00200F
S2140035400CAC002000A40140D0C40220A8AC00208F
S214003550ACAC0020B0AC00200A4B1B680133094A13
S2140035601360022B02D9084B01221A71074B1B6805
S2140035700133064A1360022B02D9054B01221A7149
S21400358000BF704708AC0020C8C402200CAC002066
S214003590D0C4022008B501214F4B0A461A714F4B82
S2140035A00A461A714FF6FF734B4A13604B4A136074
S2140035B001214B4808F0FEFC01214A4808F0FAFCBD
S2140035C001214FF4AA4008F0F5FC0121464808F016
S2140035D0F1FC01230222022103200BF0E9FB012368
S2140035E00222032103200BF0E3FB01230222032126
S2140035F001200BF0DDFB01230222042101200BF049
S214003600D7FB3A4B4FF48052C3F80024374B4FF4A5
S2140036104052C3F80824364B40F603125A65354B21
S21400362005221A60334B4FF6FF725A61314B40F257
S2140036300112DA62304B4FF0FF32DA612E4B44F261
S21400364043021A602C4B00221A662B4B00221A6784
S214003650294B03221A63284B40F201125A63264B69
S21400366001225A60254B264A1A60244B4FF6FF72F9
S214003670DA61224B234A1A66204B01221A671F4B37
S2140036804FF400725A631D4B02221A631B4B312201
S2140036909A611D4B1B4A1A661B4B01221A671A4B6E
S2140036A04FF4C0625A63184B02221A63164B30223C
S2140036B09A6103210520FFF797FD0520FFF77AFDA5
S2140036C003212920FFF790FD0C4B01225A600E4B78
S2140036D001225A6000BF08BDD0C40220C8C4022020
S2140036E000520600003E0400002A1E00008008402B
S2140036F000600E4000E4064000A401400080014047
S214003700004000020100012000A0014008B5154B52
S214003710DB6803F00103002B04D0124B01225A6130
S214003720FFF71AFF0F4BDB6803F01003002B08D0DF
S2140037300C4B10225A610B4B5B6E9BB21846FFF780
S2140037402BFE084BDB6803F02003002B08D0054B4C
S21400375020225A61034B5B6F9BB21846FFF78CFE24
S21400376000BF08BD0080014008B50F4BDB6803F0C2
S2140037701003002B07D00C4B10225A610A4B5B6ECD
S2140037801846FFF759FD084BDB6803F02003002BB3
S21400379007D0054B20225A61034B5B6F1846FFF794
S2140037A0A3FD00BF08BD00BF00A00140034B0022E0
S2140037B05A62034B01225A6000BF704700A40140C2
S2140037C000E4064082B001900091009B094A92E80E
S2140037D0030083E80300019B074A92E8030083E89E
S2140037E003000023054A1360054A136000BF02B0B9
S2140037F0704700BFD0C40220C8C4022014AC00200A
S21400380010AC002030B599B0824B0DAC1D460FCDE4
S2140038100FC42B682370804B08AC1D460FCD0FC419
S2140038202B6823707D4B03AC1D460FCD0FC42B6851
S2140038302370002300933F237F220021002004F002
S2140038404FF80023764A0021002003F059FF03F0CA
S214003850D5FD00E000BF734B1B68002BFAD1714BFF
S21400386028221A600DAA00230221002003F048FF38
S21400387008AA00230321002003F042FF03AA002326
S2140038800421002003F03CFF05F08CFA1590159BF0
S214003890012B03D0042B00F0BA8002E0FFF786FF6E
S2140038A000BF614B1B79DBB2012B0BD0022B05D07E
S2140038B0002B0BD146238DF8433007E052238DF8BA
S2140038C0433003E053238DF8433000BF574BDB688B
S2140038D01BB21A4612AB1946104604F0F7F91790B9
S2140038E00E2316930BE012AA179B134419780DAA01
S2140038F0169B13440A461A70169B013B1693179B99
S2140039005A1E1792002BEED107E0169B5A1E1692EF
S21400391018AA1344202203F82C2C169B042BF4D848
S214003920434B1B79DBB2012B0BD0022B05D0002BAF
S2140039300BD146238DF82F3007E052238DF82F3019
S21400394003E053238DF82F3000BF3A4B5B6A1A46CC
S21400395012AB1946104604F0B9F917900E231693C9
S2140039600BE012AA179B1344197808AA169B134457
S2140039700A461A70169B013B1693179B5A1E1792FF
S214003980002BEED107E0169B5A1E169218AA134477
S214003990202203F8402C169B042BF4D8254B5B6A98
S2140039A01A46224BDB681BB21A4413469B0013448C
S2140039B05B001344204A82FB03121211DB17D31A52
S2140039C012AA1146184604F081F917900F23169391
S2140039D00BE012AA179B1344197803AA169B1344EC
S2140039E00A461A70169B013B1693179B5A1E17928F
S2140039F0002BEED107E0169B5A1E169218AA134407
S214003A00202203F8542C169B042BF4D823E700BF7F
S214003A1019B030BD000301001403010028030100A3
S214003A20EC020100ECD40020C8C4022000E40640EA
S214003A30D0C4022000A40140398EE33882B0034689
S214003A408DF807309DF90730002B0CDB9DF807300A
S214003A5003F01F0205499DF907305B09012000FAB3
S214003A6002F241F8232000BF02B0704700E100E0F8
S214003A7082B0034600918DF807309DF90730002B81
S214003A800ADB009BDAB20C499DF907305201D2B22C
S214003A900B4483F800230BE0009BDAB207499DF83D
S214003AA0073003F00F03043B5201D2B20B441A76E0
S214003AB000BF02B0704700BF00E100E000ED00E08C
S214003AC084B001900091019B03F1C0630393039BB4
S214003AD0009A1A6000BF04B0704784B0019000914D
S214003AE0019B03F180630393039B009A1A6000BF57
S214003AF004B0704700B585B00123022206210420D9
S214003B000BF056F901230422072104200BF050F98C
S214003B1000230222062101200BF04AF90123042289
S214003B20052101200BF044F9012304220F21002077
S214003B300BF03EF90121284808F03CFA274B0022FA
S214003B401A60102303934FF4E1330293244808F0DD
S214003B50EDFA0190019B5A01039B029901FB03F3C6
S214003B605B0813440093039B029A02FB03F3009A3C
S214003B70B2FBF3F30093009B203B0093009BDB001B
S214003B800093164A009B5361144B33225A67134B1B
S214003B9040F201129A67114B40F20442DA670F4B6B
S214003BA041F205025A600D4B40F60542DA600B4BB7
S214003BB00422DA640720FFF741FF04210720FFF7FD
S214003BC057FF0620FFF73AFF04210620FFF750FFB5
S214003BD000BF05B05DF804FB0002040000000140D1
S214003BE04041050000B583B003468DF80730104B02
S214003BF01B680133DAB20F4B1B689A4201D10123CE
S214003C0012E00B4B1B685A1C09490A600A499DF8CA
S214003C100720CA54064B1B68DBB2054A1360022114
S214003C200648FFF74DFF0023184603B05DF804FB77
S214003C30D8AE0020DCAE0020D0AD00204C00014005
S214003C4008B5144B1B6C03F00203002B1FD0124B5D
S214003C501B68DAB2114B1B689A4218D00F4B1B68D0
S214003C605A1C0E490A600E4AD35CDAB2094B5A63F4
S214003C700A4B1B68DBB2094A1360084B1A68064BEE
S214003C801B689A4203D102210648FFF726FF00BFB1
S214003C9008BD00BF00000140D8AE0020DCAE00200A
S214003CA0D0AD00204C00014008B5134B1B6903F053
S214003CB08003002B1DD0114B1B680133DAB2104B6A
S214003CC01B6803F007039A4204D104210D48FFF74E
S214003CD004FF0EE0084BD869084B1B685A1C0749BE
S214003CE00A60C1B2084AD154044B1B68DBB2034ACF
S214003CF0136000BF08BD00BF00000140D0AE00202A
S214003D00D4AE00204C000140D0AC002000B583B0FB
S214003D100190104B1A68104B1B689A4214D00D4B3A
S214003D201B685A1C0B490A600C4AD35CDAB2019B2A
S214003D301A70084B1B68DBB2064A13600421084859
S214003D40FFF7BEFE002301E04FF0FF33184603B036
S214003D505DF804FBD4AE0020D0AE0020D0AC00202E
S214003D604C00014000B583B003468DF8073000E0F4
S214003D7000BF9DF807301846FFF734FF0346002BB8
S214003D80F6D100BF03B05DF804FB00B583B0019028
S214003D9007E0019B1B781846FFF7E4FF019B013301
S214003DA00193019B1B78002BF3D100BF03B05DF895
S214003DB004FB000000B583B00190019B092B12D9CB
S214003DC0019B0E4AA2FB0323DB081846FFF7F2FF0F
S214003DD0019A0A4BA3FB0213D9080B469B000B441F
S214003DE05B00D31A0193019BDBB23033DBB218467B
S214003DF0FFF7B8FF00BF03B05DF804FBCDCCCCCC1A
S214003E0000B585B0002302930023039306F06AFBF7
S214003E10FCF7E6FB0020FCF743FC0020FCF794FCD4
S214003E20FCF722FA04F06CFD00F082FA0346002B41
S214003E3001D00123039306F05DFF03F017FB03F0A8
S214003E4099F94FF407624A49002006F0F9FF4FF44B
S214003E500761474803F09EF90290029B002B02D0B0
S214003E600120FCF706FC4FF47A6242494FF480309A
S214003E7006F0E6FF022146F2A810FFF77DF904F0EF
S214003E8075FFFFF737FEFFF785FBFEF7EDFB384BB8
S214003E901B681A46364BDB6E19461046FEF76CFD5D
S214003EA000F06AF9029B002B36D00023029302230F
S214003EB000933F237F220021002003F011FD002302
S214003EC02D4A0221022003F01BFC00232B4A03216B
S214003ED0022003F015FC03F091FA4FF40762244920
S214003EE04FF4FE2006F0ACFF4FF40761204803F0C5
S214003EF051F90290029B002B09D10023204A04218D
S214003F00022003F0FDFB03F079FA00E000BF04F0A6
S214003F1049FF0346042BF9D1154B9B6A184606F059
S214003F20EFFA039B002B1ED000230393022300937B
S214003F303F237F220021002003F0D2FC0023114AF9
S214003F400221022003F0DCFB00230F4A032102209B
S214003F5003F0D6FB03F052FA00E000BF04F022FFA5
S214003F600346042BF9D100BF05B05DF804FB00BF83
S214003F70F4C802202CAD02203C03010048030100D7
S214003F8054030100600301007003010000B5D5B0C2
S214003F906B46084A184611464FF4A8731A460BF0AB
S214003FA0BFFC6B460D21184602F02EFA00BF55B036
S214003FB05DF804FB800301000F4B1B68002B04D048
S214003FC00D4B1B68013B0C4A13600C4B1B68002B07
S214003FD004D00A4B1B68013B084A1360084B1B6859
S214003FE0002B04D0064B1B68013B054A1360054BAB
S214003FF001229A6000BF7047A0D10220ECD40020B6
S214004000D02E00200020084008B5FEF7D7FB07207A
S214004010FCF79AFB0720FCF743FBFEE782B003465B
S2140040208DF807309DF90730002B0CDB9DF8073024
S21400403003F01F0205499DF907305B09012000FACD
S21400404002F241F8232000BF02B0704700E100E012
S21400405082B0034600918DF807309DF90730002B9B
S2140040600ADB009BDAB20C499DF907305201D2B246
S2140040700B4483F800230BE0009BDAB207499DF857
S214004080073003F00F03043B5201D2B20B441A76FA
S21400409000BF02B0704700BF00E100E000ED00E0A6
S2140040A086B0039002910192019BB3F5807F02D9FE
S2140040B04FF480730193039B019A1A60019B5A1E6A
S2140040C0039BC3F80424019B029A02FB03F2039BA2
S2140040D0C3F808240023059308E0039A059B9B0079
S2140040E01344029A5A60059B01330593059A019B77
S2140040F09A42F2D300BF06B07047000082B001902B
S2140041000091019BD3F80434002B06D1019B1B6859
S2140041105A1E019BC3F8042406E0019BD3F804341E
S2140041205A1E019BC3F80424019BD3F80824009B65
S2140041301A44019BD3F8043401999B000B445B6836
S214004140D21A019BC3F80824019BD3F80434019AC1
S2140041509B001344009A5A60064B0122C3F80C24B5
S214004160019BD3F80824019B1B68B2FBF3F31846A7
S21400417002B07047D8C4022008B5002300220621EA
S21400418000200AF015FE0121284807F013FF284BEF
S21400419001221A60274B1B6F264AD2F8842002FBA6
S2140041A003F342F20F72934215DC224B1B6F214A37
S2140041B0D2F8842002FB03F213461B039B1A1E4A06
S2140041C082FB03121213DB17D31A43F07F6343F408
S2140041D070231A4AD3621A4B2322C3F8F020184BD6
S2140041E04FF47142C3F8F020154B0022C3F8F020BC
S2140041F0134B0022C3F8F420114B4FF480121A61BF
S2140042000E4B104A1A610D4B4FF480425A610B4B0D
S2140042105B6C0A4A43F00103536405210920FFF74B
S21400422017FF0920FFF7FAFE00BF08BD006E080062
S214004230E0AE0020F4C80220AD8BDB68002008400A
S214004240006008402026008908B50C4B1B68002B30
S2140042500BD00A4B00221A60094B9B6C4FF48072FD
S21400426019460848FFF71CFF05E0054B9B6C1946EE
S2140042700448FFF743FF00BF08BD00BFE0AE0020C4
S21400428000200840D8C40220074BD3F80824064B69
S2140042901B68B2FBF3F3054AD2F8842002FB03F353
S2140042A01B0B1846704700BFD8C40220F4C8022073
S2140042B000B583B0002300933F237F220021002017
S2140042C003F00EFB03F09AF81EE0164BD3F80C34FE
S2140042D0002B16D0134B0022C3F80C24FFF7D4FF94
S2140042E003460121184603F0CFF80F4B9B6B03F4EF
S2140042F08033002B05D000230C4A0721032003F04F
S214004300FFF93220FBF7D8FF04F04CFD0346042BE0
S214004310DBD1054B4FF480321A6400BF03B05DF862
S21400432004FB00BFD8C4022000200840D0040100CF
S21400433008B5184B00221A700123164A9221522003
S21400434004F0D0FC134B1B78442B01D001231EE055
S214004350104B01221A7001230E4A8021522004F0CD
S2140043607DFC0C4B88221A7001230A4A81215220B8
S21400437004F074FC074B00221A700123054A8F21B3
S214004380522004F06BFC044B01221A6000231846EE
S21400439008BD00BFF0C80220E4AE002000B587B01C
S2140043A0644B1B68002B01D10023BEE0624B032246
S2140043B01A700123604A8021522004F04FFC5E4BA5
S2140043C0FF221A7001235C4A9321522004F08AFCD3
S2140043D0594B1B7803F00103002BF3D00823574AF0
S2140043E0B421522004F07EFC544B5B889BB21A46E4
S2140043F0534B1B6B03FB02F39B129AB24F4B5A8034
S2140044004E4B9B889BB21A464D4B5B6B03FB02F3ED
S2140044109B129AB2494B9A80484BDB889BB21A464D
S214004420474B9B6B03FB02F39B129AB2434BDA801B
S214004430424B1B889BB21A46414BDB6B9A4201DA11
S214004440002372E04FF4803304930123059311E0B8
S2140044503A4A059B32F813309BB21A46049B9342A5
S21400446005D9364A059B32F813309BB20493059B58
S21400447001330593059B032BEAD9049A13465B0088
S21400448013449B0219462D4B5B889BB21A462B4B56
S2140044909B889BB21344294AD28892B21344B1FB3C
S2140044A0F3F30393264BD3F89420039B9A4201DA46
S2140044B007233AE0214B5B889BB25B001F4A928839
S2140044C092B29B1A1D4AD28892B29B1A02931B4B39
S2140044D09B889BB21A46194BDB889BB2D21A1346AE
S2140044E05B0013440193029B83EAE372A2EBE37240
S2140044F0019B002BB8BF5B429A4206DD029B002B55
S21400450001DA062311E001230FE0029B002B06DAF6
S214004510019B002B01DA042307E0022305E0019B40
S214004520002B01DA052300E00323184607B05DF8E8
S21400453004FB00BFE4AE0020F0C80220E8C802205A
S214004540F4C8022000B585B06B4600221A605A6097
S2140045506B460121184603F0EBFF54E0FFF71EFF01
S21400456003468DF80B309DF80B30072B32D801A28E
S21400457052F823F0CD450000954500009D4500000B
S214004580AD450000A5450000BD450000B54500004E
S214004590C54500000120FCF783F81BE00220FCF76D
S2140045A07FF817E00420FCF77BF813E00320FCF705
S2140045B077F80FE00620FCF773F80BE00520FCF711
S2140045C06FF807E00720FCF76BF803E00020FCF725
S2140045D067F800BF002303930DE0114A039B32F8EF
S2140045E013309AB2039B5B0004A90B4423F8102CEB
S2140045F0039B01330393039B032BEED96B460021E9
S214004600184603F095FF04F0CDFB0346042BA5D116
S2140046100020FCF745F800BF05B05DF804FB00BFBE
S214004620E8C8022000B583B001900B468DF8033031
S214004630019BD3F88C30002B69D19DF803300D2BED
S21400464017D00D2B04DC032B07D0082B1DD035E02C
S2140046501B2B2DD07F2B18D030E0019B0022C3F8F7
S2140046608820019BD3F88830019A0021D154012379
S21400467054E0019BD3F88830019A0021D154019B65
S2140046800022C3F88820012348E0019BD3F8883035
S214004690002B0BD0019BD3F8903022489847019B03
S2140046A0D3F888305A1E019BC3F88820002335E0D3
S2140046B0019B0122C3F88C2000232FE0019BD3F836
S2140046C08830019A9DF80310D154019BD3F894309A
S2140046D0019AD2F8882001998A5C10469847019B77
S2140046E0D3F888305A1C019BC3F88820019BD3F866
S2140046F088303E2B11D9019BD3F88830019A0021CF
S214004700D154019B0022C3F88820012306E0019BB8
S2140047100022C3F88C20002300E00023184603B0D4
S2140047205DF804FB100C010000B58FB001900091FD
S21400473000230C93AC4AAD494FF4802006F080FB72
S2140047400023099306E2A949099A13469B001344DD
S2140047505B000B441B881BB2B3F1FF3F27D1A34974
S214004760099A13469B0013445B000B4402331B88D4
S2140047701BB2B3F1FF3F1AD19C49099A13469B001E
S21400478013445B000B4404331B881BB2B3F1FF3F9A
S2140047900DD19649099A13469B0013445B000B44BF
S2140047A006331B881BB2B3F1FF3F00F0DA8100230B
S2140047B00893C8E1089B002B40F077816423079399
S2140047C00123059302AB0A930C9B894AA2FB0323A1
S2140047D05B0B06932CE0069A079BB2FBF3F3DBB267
S2140047E03033DAB20A9B1A70059B002B07D00A9B5F
S2140047F01B78302B03D10A9B20221A7001E000237D
S21400480005930A9B01330A93069B079AB3FBF2F2C1
S214004810079901FB02F29B1A0693079B754AA2FBB7
S2140048200323DB080793079B012B01D10023059385
S214004830079B002BCFD10A9B5A1C0A922E221A7075
S2140048400C9B6B4AA2FB0312520B42F2107101FB47
S21400485002F29B1A06934FF47A73079319E0069AAE
S214004860079BB2FBF3F3DAB20A9B591C0A9130326B
S214004870D2B21A70069B079AB3FBF2F2079901FBB5
S21400488002F29B1A0693079B5A4AA2FB0323DB08F5
S2140048900793079B002BE2D10A9B5A1C0A922C22F4
S2140048A01A700A9B5A1C0A9200221A70019BD3F8AF
S2140048B0903002AA1046984780230D9300230B934E
S2140048C01EE04A49099A13469B0013445B000B44BA
S2140048D01B881BB21A460D9B1340002B05D0019B6C
S2140048E0D3F894302A20984704E0019BD3F89430FC
S2140048F02E2098470D9B5B080D930B9B01330B9363
S2140049000B9B072BDDD9019BD3F894302C209847BE
S2140049103649099A13469B0013445B000B441B88D8
S2140049201BB203F47043B3F5804F04D1019BD3F858
S2140049309030314898472D49099A13469B001344F6
S2140049405B000B441B881BB203F47043B3F5005F97
S2140049505BD1019BD3F89030284898472349099AA1
S21400496013469B0013445B000B441B881BB29BB290
S21400497003F48063002B05D0019BD3F894304C20C1
S214004980984704E0019BD3F89430202098471749B5
S214004990099A13469B0013445B000B441B881BB20A
S2140049A09BB203F40073002B05D0019BD3F8943020
S2140049B05320984704E0019BD3F894302020984772
S2140049C00A49099A13469B0013445B000B441B8854
S2140049D01BB29BB203F40063002B11D0019BD3F8EB
S2140049E094305220984710E0C0D4010064D60020CE
S2140049F05917B7D1CDCCCCCCDC040100EC040100B7
S214004A00019BD3F89430202098475949099A1346B9
S214004A109B0013445B000B441B881BB203F47043DB
S214004A20B3F5805F04D1019BD3F890305148984786
S214004A304F49099A13469B0013445B000B441B889E
S214004A401BB203F47043B3F5A04F04D1019BD3F817
S214004A509030494898474649099A13469B001344A4
S214004A605B000B441B881BB203F47043B3F5405F36
S214004A7004D1019BD3F89030404898473C49099AA6
S214004A8013469B0013445B000B441B881BB203F4C5
S214004A907043B3F5C04F04D1019BD3F8903038482B
S214004AA098470C9B19330C9337E03149099A134603
S214004AB09B001344089A134431F813301BB2002BA2
S214004AC01CDA019BD3F894302D2098472849099A80
S214004AD013469B001344089A134431F813301BB254
S214004AE09BB25B429BB218B22149099A13469B00BF
S214004AF01344089A1344024621F81320019BD3F866
S214004B0098101B48099A13469B001344089A1344AE
S214004B1030F813301BB218468847089B042B0AD17E
S214004B20019BD3F894300D209847019BD3F894301E
S214004B300A20984704E0019BD3F894302C2098472D
S214004B40089B01330893089B042B7FF633AE099B22
S214004B5001330993099B42F6DF6293427FF6F3AD79
S214004B6000E000BF002318460FB05DF804FB00BF4E
S214004B7064D60020F4040100000501000C050100C5
S214004B801805010000B5D5B001AB18606B4619607A
S214004B900023ADF84A310023ADF848310023509386
S214004BA000234F934FF0FF334E9300234D936B46F5
S214004BB01B68002B31D001AB1B68D3F88430012B67
S214004BC001D80123BCE201AB1B68D3F88430023B5A
S214004BD001AA126810339B0013445B684F9301AB25
S214004BE01B68D3F88430013B01AA126810339B007F
S214004BF013445B684E9301AB1B68D3F884305A1E8F
S214004C0001AB1B68C3F8842001AB1B68D3F8843063
S214004C105A1E01AB1B68C3F884204FF400334C9334
S214004C2005AB4FF4807219464C9806F009F905ABAF
S214004C305393539B9A1C53921B884593539B9A1CE1
S214004C4053921B881B041A46459B13444593459B69
S214004C50B3F5803F07D901AB1B68D3F890308D4879
S214004C60984701236CE202234B9363E2509A4F9BD2
S214004C709A4203D3509A4E9B9A420AD9539B1B885A
S214004C8003F47043002B00F03D82509B1933509381
S214004C9038E2539B1B8803F47043002B00F04E81D0
S214004CA0642348930123469302AB4993509B7A4A68
S214004CB0A2FB03235B0B47932CE0479A489BB2FB6F
S214004CC0F3F3DBB23033DAB2499B1A70469B002B03
S214004CD007D0499B1B78302B03D1499B20221A70A2
S214004CE001E000234693499B01334993479B489A2A
S214004CF0B3FBF2F2489901FB02F29B1A4793489BDA
S214004D00664AA2FB0323DB084893489B012B01D18C
S214004D1000234693489B002BCFD1499B5A1C4992AF
S214004D202E221A70509B5C4AA2FB0312520B42F2D0
S214004D30107101FB02F29B1A47934FF47A73489363
S214004D4019E0479A489BB2FBF3F3DAB2499B591C29
S214004D5049913032D2B21A70479B489AB3FBF2F2AE
S214004D60489901FB02F29B1A4793489B4B4AA2FBC9
S214004D700323DB084893489B002BE2D1499B5A1C2F
S214004D8049922C221A70499B5A1C499200221A708A
S214004D9001AB1B68D3F8903002AA104698478023D0
S214004DA0519300234A9319E0539B1B881A46519B44
S214004DB01340002B06D001AB1B68D3F894302A2092
S214004DC0984705E001AB1B68D3F894302E2098472F
S214004DD0519B5B0851934A9B01334A934A9B072B8E
S214004DE0E2D901AB1B68D3F894302C209847539B2C
S214004DF01B8803F47043B3F5804F05D101AB1B68E5
S214004E00D3F8903026489847539B1B8803F470438A
S214004E10B3F5005F4ED101AB1B68D3F89030214844
S214004E20984701AB1B68D3F894302C209847539BC7
S214004E301B8803F48063002B06D001AB1B68D3F8F5
S214004E4094304C20984705E001AB1B68D3F89430AB
S214004E5020209847539B1B8803F40073002B06D032
S214004E6001AB1B68D3F894305320984705E001AB9C
S214004E701B68D3F8943020209847539B1B8803F474
S214004E800063002B10D001AB1B68D3F8943052207F
S214004E9098470FE0240501005917B7D1CDCCCCCCEC
S214004EA0400501004C05010001AB1B68D3F89430A7
S214004EB020209847539B1B8803F47043B3F5805F0C
S214004EC005D101AB1B68D3F890309F489847539B99
S214004ED01B8803F47043B3F5A04F05D101AB1B68E4
S214004EE0D3F8903099489847539B1B8803F4704337
S214004EF0B3F5405F05D101AB1B68D3F890309448FA
S214004F009847539B1B8803F47043B3F5C04F05D1F5
S214004F1001AB1B68D3F890308E48984701AB1B68EE
S214004F20D3F894300D20984701AB1B68D3F8943023
S214004F300A209847509B19335093E3E0539B1B88F5
S214004F4003F47F43B3F5807F0CD1BDF84A3123F0DC
S214004F50FF031AB2539B1B881BB2DBB21BB2134370
S214004F60ADF84A31539B1B8803F47F43B3F5007FAB
S214004F700AD1BDF84A31DBB21AB2539B1B881B021A
S214004F801BB21343ADF84A31539B1B8803F47F438F
S214004F90B3F5407F0CD1BDF8483123F0FF031AB2B9
S214004FA0539B1B881BB2DBB21BB21343ADF84831D0
S214004FB0539B1B8803F47F43B3F5806F0AD1BDF87B
S214004FC04831DBB21AB2539B1B881B021BB2134339
S214004FD0ADF84831539B1B8803F47F43B3F5A06FAD
S214004FE007D14D9B03F47F42539B1B88DBB21343D0
S214004FF04D93539B1B8803F47F43B3F5C06F07D1D3
S2140050004D9BDAB2539B1B881B029BB213434D93F6
S214005010539B1B8803F47F43002B73D101AB1B68A3
S214005020D3F890304C48984701AB1B68D3F89830BB
S2140050304D98984701AB1B68D3F89030474898477F
S21400504001AB1B68D3F89830539A1288D2B2104638
S214005050984701AB1B68D3F8903041489847BDF994
S2140050604A31002B0FDA01AB1B68D3F894302D20A1
S214005070984701AB1B68D3F89830BDF94A215242D5
S2140050801046984707E001AB1B68D3F89830BDF987
S2140050904A211046984701AB1B68D3F89030314838
S2140050A09847BDF94831002B0FDA01AB1B68D3F8DF
S2140050B094302D20984701AB1B68D3F89830BDF983
S2140050C0482152421046984707E001AB1B68D3F8C8
S2140050D09830BDF948211046984701AB1B68D3F8B5
S2140050E094300D20984701AB1B68D3F894300A2003
S2140050F0984700234D930023ADF84831BDF848315A
S214005100ADF84A31539B0233539305ABFE33539AA3
S2140051109A420CD94C9B03F580734C9305AB4FF425
S214005120807219464C9805F08BFE05AB53934B9B4B
S21400513001334B934B9A459B9A42FFF497AD00235D
S214005140184655B05DF804FB540501005C050100E7
S214005150640501006C050100740501008805010066
S2140051609C050100AC05010000B587B001900091D8
S2140051702C4B05932C4B04930023039347E0019B91
S214005180D3F89830039A10469847019BD3F894308A
S21400519009209847019BD3F89830049A1268104665
S2140051A09847019BD3F8943009209847059B1B78B5
S2140051B0032B23D801A252F823F000BFCD510000E4
S2140051C0D9510000F1510000E5510000019BD3F8D1
S2140051D090301648984711E0019BD3F89030144859
S2140051E098470BE0019BD3F890301248984705E0AB
S2140051F0019BD3F890301048984700BF059B0133B9
S2140052000593049B04330493039B013303930B4BD6
S2140052101B6C039A9A42B2DB0023184607B05DF86F
S21400522004FB00BF8CC902201CCB0220BC05010079
S214005230C8050100D0050100D8050100F4C8022009
S21400524000B583B00190009140F66C010C4801F067
S214005250A1FF03461A460A4BC3F86C284FF40762B0
S21400526007494FF4FE2005F037FE4FF40762044965
S214005270002005F031FE0023184603B05DF804FB5D
S214005280F4C8022082B001900091019BD3F88430CC
S214005290009A019910339B000B445A60019BD3F887
S2140052A084305A1C019BC3F88420019BD3F88430B9
S2140052B00F2B01D8002304E0019B0F22C3F88420A3
S2140052C00123184602B0704700B585B001900091E2
S2140052D0019BD3F88430002B01D1012316E0019BFB
S2140052E0D3F884305A1E019BC3F88420019BD3F860
S2140052F08430019A10339B0013445B680393039B2E
S214005300044A13600398FDF701FD0023184605B014
S2140053105DF804FBF4C8022082B001900091019B66
S214005320D3F88430002B08D0019BD3F884305A1E63
S214005330019BC3F88420002300E00123184602B036
S214005340704782B001900091019BD3F88430002B07
S21400535001D1012324E0019BD3F88430013B019A5C
S214005360D2F88400019A10339B0013445A680199BE
S21400537000F110039B000B445A60019BD3F8843065
S2140053805A1C019BC3F88420019BD3F884300F2B52
S21400539001D8002304E0019B0F22C3F884200123D8
S2140053A0184602B0704784B001900091019BD3F874
S2140053B08430002B01D1012316E0019BD3F8843002
S2140053C0013B019A10339B0013445B680393039BD5
S2140053D01A68019BD3F88430013B1146019A1033BA
S2140053E09B00134459600023184604B0704782B0EF
S2140053F001900091019BD3F88430012B01D8012342
S2140054001BE0019BD3F88430023B019A10339B00CB
S21400541013445968019BD3F88430013B019A10333A
S2140054209B0013445B680A461A60019BD3F88430DD
S2140054309A1E019BC3F884200023184602B07047CA
S21400544082B001900091019BD3F88430012B01D8E3
S21400545001231BE0019BD3F88430023B019A1033F2
S2140054609B0013445968019BD3F88430013B019A92
S21400547010339B0013445B684AB21A70019BD3F842
S21400548084309A1E019BC3F884200023184602B07D
S214005490704782B001900091019BD3F88430012BB5
S2140054A001D801231BE0019BD3F88430023B019A0C
S2140054B010339B0013445968019BD3F88430013B9A
S2140054C0019A10339B0013445B680AB21A80019B52
S2140054D0D3F884309A1E019BC3F884200023184614
S2140054E002B0704784B001900091019BD3F88430DD
S2140054F0012B01D8012327E0019BD3F88430013B20
S214005500019A10339B0013445B680393019BD3F806
S2140055108430023B019AD2F88420501E019A103340
S2140055209B0013445A68019900F110039B000B443A
S2140055305A60019BD3F88430023B019A10339B00DB
S2140055401344039A5A600023184604B0704782B08A
S21400555001900091019BD3F88430012B01D80123E0
S21400556023E0019BD3F88430023B019A10339B0062
S21400557013445968019BD3F88430013B019A1033D9
S2140055809B0013445A68019BD3F88430023B0A44BC
S214005590019910339B000B445A60019BD3F884306A
S2140055A05A1E019BC3F884200023184602B0704799
S2140055B082B001900091019BD3F88430012B01D872
S2140055C0012323E0019BD3F88430023B019A103379
S2140055D09B0013445968019BD3F88430013B019A21
S2140055E010339B0013445A68019BD3F88430023B67
S2140055F08A1A019910339B000B445A60019BD3F81A
S21400560084305A1E019BC3F884200023184602B03B
S214005610704782B001900091019BD3F88430012B33
S21400562001D8012324E0019BD3F88430023B019A81
S21400563010339B0013445968019BD3F88430013B18
S214005640019A10339B0013445A68019BD3F88430A8
S214005650023B01FA02F2019910339B000B445A6098
S214005660019BD3F884305A1E019BC3F88420002384
S214005670184602B0704782B001900091019BD3F8A3
S2140056808430012B01D8012324E0019BD3F8843019
S214005690023B019A10339B0013445A68019BD3F8CF
S2140056A08430013B019910339B000B445968019BE1
S2140056B0D3F88430023B01FB02F2019910339B00C1
S2140056C00B445A60019BD3F884305A1E019BC3F8E2
S2140056D084200023184602B0704782B001900091E3
S2140056E0019BD3F88430012B01D8012324E0019BD1
S2140056F0D3F88430023B019A10339B001344596858
S214005700019BD3F88430013B019A10339B0013446D
S2140057105A68019BD3F88430023BB1FBF2F2019940
S21400572010339B000B445A60019BD3F884305A1EFA
S214005730019BC3F884200023184602B0704782B04D
S21400574001900091019BD3F88430012B01D80123EE
S21400575023E0019BD3F88430023B019A10339B0070
S21400576013445968019BD3F88430013B019A1033E7
S2140057709B0013445A68019BD3F88430023B0A40CE
S214005780019910339B000B445A60019BD3F8843078
S2140057905A1E019BC3F884200023184602B07047A7
S2140057A082B001900091019BD3F88430012B01D880
S2140057B0012323E0019BD3F88430023B019A103387
S2140057C09B0013445968019BD3F88430013B019A2F
S2140057D010339B0013445A68019BD3F88430023B75
S2140057E00A43019910339B000B445A60019BD3F87F
S2140057F084305A1E019BC3F884200023184602B04A
S214005800704782B001900091019BD3F88430012B41
S21400581001D8012323E0019BD3F88430023B019A90
S21400582010339B0013445968019BD3F88430013B26
S214005830019A10339B0013445A68019BD3F88430B6
S214005840023B4A40019910339B000B445A60019B6F
S214005850D3F884305A1E019BC3F8842000231846D0
S21400586002B0704782B001900091009B012B01D8D6
S214005870012303E0009A019B1A640023184602B035
S214005880704700B589B001900091019BD3F8843031
S214005890069348E0069B013B019A10339B00134495
S2140058A05B6807930823059328E0079BDBB203F0A9
S2140058B00F03DAB2059B013B3032D2B208A90B4483
S2140058C003F8182C059B013B08AA134413F8183C50
